:1000000000000A128A111228FE00030EFA000408EA
:10001000FB000A08FC00831203137F08FD000A128C
:0A0020008A11192F0A128A11F22F1B
:1006EA00F21F08007109F3007209F400F30A0319F2
:1006FA00F40A7308F1007408F20008000A128A1159
:10070A0091230A128A11003083120313D200D300F4
:10071A000A128A1112240800F03083160313880083
:10072A008312031388018B170B17831603138C1478
:10073A00831203138C107E309200FF30831603134A
:10074A0092000800831203133008A8003108A90098
:10075A00AA018E30B3003308AB00AC010A128A1129
:10076A006525831203132808B0002908B1002A0856
:10077A00B200080083120313B501B601311CCB2B5A
:10078A003308B5070318B60A3408B6070130031050
:10079A00B30DB40DFF3E031DCC2B01300310B20C78
:1007AA00B10CFF3E031DD32B31083204031DC32BAA
:1007BA003608B2003508B100080083120313530843
:1007CA00B1005208B0000A128A11A7230A128A112C
:1007DA00831203133008B7003108B8003208B90091
:1007EA000030B4003430B5003E30B6000A128A1127
:1007FA0061260A128A11831203133408C4003508C9
:10080A00C5003608C6000A128A11D32583120313BB
:10081A004508D9004408D800080083120313530876
:10082A00B1005208B0000A128A11A7230A128A11CB
:10083A00831203133008B7003108B8003208B90030
:10084A000030B4003430B5003E30B6000A128A11C6
:10085A0061260A128A11831203133408C400350868
:10086A00C5003608C6000A128A11D325831203135B
:10087A004508DD004408DC0008000A128A118323B7
:10088A000A128A1183120313081E532C0030D20055
:10089A00D3000A128A11E2230A128A11831203135D
:1008AA00881E602C5A30D2000030D3000A128A11F6
:1008BA00E2230A128A1183120313081F6D2CB43023
:1008CA00D2000030D3000A128A11E2230A128A11D6
:1008DA000A128A1173240A128A11472C83120313EB
:1008EA00560857040319B42C8316031312088312EB
:1008FA000313B700B8013708A8003808A900DA308E
:10090A00AA001030AB000A128A110A250A128A11AB
:10091A00831203132908B2002808B1006430B30017
:10092A000030B4000A128A11BF230A128A118312F4
:10093A0003133208BA003108B9005130A800003058
:10094A00A9003A08AB003908AA000A128A110A2536
:10095A00831203132908D5002808D4000800D401FB
:10096A00D5010800831203135809F5005909F60046
:10097A00F50A0319F60A5C087507F1005D08031801
:10098A005D0A7607F2000A128A1175230A128A1181
:10099A00720883120313D7007108D60059085D0242
:1009AA00031DD92C58085C020318ED2C5708803A0D
:1009BA00FF0088307F02031DE42C01305602031C1D
:1009CA00ED2C83120313D609D709D60A0319D70ABD
:1009DA00831203135D085902031DF52C5C085802A3
:1009EA00031808005708803AFF0088307F02031D69
:1009FA00002D003056020318080083120313D6098B
:100A0A00D709D60A0319D70A080083120313AE01BD
:100A1A00A91F162DA809A909A80A0319A90AAE012E
:100A2A00AE0AAB1F212DAA09AB09AA0A0319AB0A00
:100A3A000130AC002C08AE06AF01B0012808290429
:100A4A000319582DAD01AD0AA91B372D013003102A
:100A5A00A80DA90DFF3E031D2C2D0130AC002C085A
:100A6A00AD07292D01300310AF0DB00DFF3E031D58
:100A7A00382D29082B02031D442D28082A02031C9D
:100A8A004D2D2808AA022908031CAB03AB022F1418
:100A9A0001300310A90CA80CFF3E031D4E2D013096
:100AAA00AD02031D372D2E080319602DAF09B009B9
:100ABA00AF0A0319B00A3008A9002F08A8000800D5
:100ACA00831203132B0803196F2D2A0829042804FB
:100ADA00031D822D0030A8000030A9000030AA00B2
:100AEA0008000130AD002D08AB0701300310AA0C35
:100AFA00A90CA80CFF3E031D7B2DFE302A05031905
:100B0A009D2D762D0130AD002D08AB070130A807C9
:100B1A00003003180130A907003003180130AA0772
:100B2A0001300310AA0CA90CA80CFF3E031D962D38
:100B3A00FF302A050319AC2D872D0130AB02013095
:100B4A000310A80DA90DAA0DFF3E031DA52DA91B73
:100B5A00B22D02302B020318A22D2B18BA2DFF300A
:100B6A00A8057F30A905FF30AA050310AB0C2B0896
:100B7A00AD00AE01AF0110300310AD0DAE0DAF0DDB
:100B8A00FF3E031DC12D2D08A8042E08A9042F0815
:100B9A00AA042C0803190800AA17080083120313D1
:100BAA004408C8004508C9004608CA000310490D90
:100BBA004A0DCB004B08D1005108031DED2D003022
:100BCA00C7000030C6000030C5000030C40008006D
:100BDA004408C8004508C9004608CA00173003106F
:100BEA00CA0CC90CC80CFF3E031DF42D4808CB00E3
:100BFA004B08CC00C517FF30C405FF30C5050030CF
:100C0A00C6054408CD004508CE004608CF00D001ED
:100C1A008E30D102D11F2F2E5108803A8F3E0318F1
:100C2A001F2E0030C7000030C6000030C50000305B
:100C3A00C400080001300310D00CCF0CCE0CCD0C30
:100C4A00FF3E031D202E0130C8004808D1070319B2
:100C5A004A2E1F2E18305102031C472E0030C7009F
:100C6A000030C6000030C5000030C4000800013062
:100C7A00C8000310CD0DCE0DCF0DD00DC80B3E2EE2
:100C8A000130D1025108031D3C2E4C080319582E7D
:100C9A00CD09CE09CF09D009CD0A0319CE0A031905
:100CAA00CF0A0319D00A5008C7004F08C6004E08D9
:100CBA00C5004D08C4000800831203133708BA00A0
:100CCA003808BB003908BC0003103B0D3C0DBD00C1
:100CDA003D08C2004208031D792E0030B4000030DE
:100CEA00B5000030B60008003408BA003508BB0069
:100CFA003608BC0003103B0D3C0DBD003D08C30087
:100D0A004308031D8F2E0030B4000030B5000030B8
:100D1A00B60008000030BF000030C0000030C1003B
:100D2A0089304307BA003A08C2023708BA003808BD
:100D3A00BB003908BC0010300310BC0CBB0CBA0C49
:100D4A00FF3E031DA12E3A08BD003D08C30034082A
:100D5A00BA003508BB003608BC0010300310BC0CC2
:100D6A00BB0CBA0CFF3E031DB32E3A08BD003D086A
:100D7A00C3068030BA003A08C305B817FF30B70572
:100D8A00FF30B8050030B905B517FF30B405FF309C
:100D9A00B5050030B6051830BA003A08BE00013071
:100DAA000310BF0DC00DC10DFF3E031DD52E360821
:100DBA003902031DE62E35083802031DE62E3408D3
:100DCA003702031CF32E3408B7023508031C350F0B
:100DDA00B8023608031C360AB9023F140130031060
:100DEA00B70DB80DB90DFF3E031DF42E0130BE023A
:100DFA00031DD42E3F08A8004008A9004108AA00F4
:100E0A004208BA003A08AB004308BB003B08AC00F2
:100E1A000A128A116525831203132808B4002908C7
:100E2A00B5002A08B60008000A128A11B7240A1265
:100E3A008A116530831203135A020318322F560897
:100E4A0057040319322F023083160313920201301A
:100E5A00F700770883120313DA0756085704031DAD
:100E6A003B2FDA01FF3083160313920083125708CF
:100E7A00803AFF0080307F02031D452F0130560261
:100E8A00031C932F8312031303105B080319542FB7
:100E9A005B08F700F8017708A0007808572F01309F
:100EAA00A0000030A1002008F7007708DB00083016
:100EBA005B060319682F5B08F700F8010310770D2A
:100ECA00A200780D762F5B08F70003300310F70CA9
:100EDA00FF3E031D6B2F7708F800F9017808A2007E
:100EEA007908A3002208F7007708DB005C08013EB6
:100EFA00F7005D080318013E003EF8000830780646
:100F0A0077040319912F5C08013EDC005D08031881
:100F1A00013E003EDD00932FDC01DD018312031345
:100F2A00D71FE42F03105B080319A22F5B08F700F1
:100F3A00F8017708A4007808A52F0830A40000302B
:100F4A00A5002408F7007708DB005B030319B72F15
:100F5A005B08F7000310770CF800F9017808A6007F
:100F6A007908C62F5B08F700F8010310F70DF80D92
:100F7A000310F70DF80D0310F70DF80D7708A6000A
:100F8A007808A7002608F7007708DB005C08FF3E10
:100F9A00F7005D080318013EFF3EF800770A0319BF
:100FAA00780A0319E02F5C08FF3EDC005D0803188D
:100FBA00013EFF3EE32FFF30DC000730DD005B0817
:100FCA0088008C107D08FF007C088A007B0884005A
:100FDA007A0E8300FE0E7E0E090083120313D401DB
:100FEA00D501D601D701D801D901DA01DB01830184
:060FFA000A128A11422CCC
:04400E00F4EFFFFFCD
:00000001FF
