:060000000A128A11122809
:10000800FE00030EF9000408FA000A08FB00831238
:1000180003137F08FC000A128A1126280A128A1183
:1000280015280A128A11F123E100D601D701D80157
:10003800D901DA01DB01DC01DD01DE0183010A12ED
:100048008A11802B0A128A11CD220A128A110B30CA
:10005800831203135D02031C5028610303193C2813
:100068006108FF3EA000FF3003180030A1004028BF
:100078000130A0000030A1002008F6007608E10059
:100088006108031D4B283230831603139202013096
:10009800F60076088312DD076108FF3EF600FF30A0
:1000A80003180030F7005C0876067704031D610327
:1000B800031D09295908803AFF0080307F02031D7B
:1000C800672801305802031CB52883120313031054
:1000D8005E08031976285E08F600F7017608A20084
:1000E800770879280130A2000030A3002208F60022
:1000F8007608DE0008305E0603198A285E08F600D6
:10010800F7010310760DA400770D98285E08F60015
:1001180003300310F60CFF3E031D8D287608F70008
:10012800F8017708A4007808A5002408F6007608E6
:10013800DE005F08013EF60060080318013E003E3D
:10014800F7000830770676040319B3285F08013EE4
:10015800DF0060080318013E003EE000B528DF011B
:10016800E00183120313D91F062903105E0803193F
:10017800C4285E08F600F7017608A6007708C728A5
:100188000830A6000030A7002608F6007608DE0032
:100198005E030319D9285E08F6000310760CF700F1
:1001A800F8017708A8007808E8285E08F600F70143
:1001B8000310F60DF70D0310F60DF70D0310F60DED
:1001C800F70D7608A8007708A9002808F600760831
:1001D800DE005F08FF3EF60060080318013EFF3EA0
:1001E800F700760A0319770A031902295F08FF3E08
:1001F800DF0060080318013EFF3E0529FF30DF00DD
:100208000730E000DC015E0888000130F60076085F
:10021800DC078C107C08FF007B088A007A088400C1
:10022800790E8300FE0E7E0E09008312031339082F
:10023800BC003A08BD003B08BE0003103D0D3E0D52
:10024800BF003F08C4004408031D31290030B60030
:100258000030B7000030B80008003608BC00370886
:10026800BD003808BE0003103D0D3E0DBF003F081D
:10027800C5004508031D47290030B6000030B70007
:100288000030B80008000030C1000030C200003063
:10029800C30089304507BC003C08C4023908BC00CB
:1002A8003A08BD003B08BE0010300310BE0CBD0C60
:1002B800BC0CFF3E031D59293C08BF003F08C50080
:1002C8003608BC003708BD003808BE0010300310DF
:1002D800BE0CBD0CBC0CFF3E031D6B293C08BF00C7
:1002E8003F08C5068030BC003C08C505BA17FF307A
:1002F800B905FF30BA050030BB05B717FF30B605A2
:10030800FF30B7050030B8051830BC003C08C00005
:1003180001300310C10DC20DC30DFF3E031D8D2911
:1003280038083B02031D9E2937083A02031D9E29FF
:1003380036083902031CAB293608B9023708031CF2
:10034800370FBA023808031C380ABB0241140130BF
:100358000310B90DBA0DBB0DFF3E031DAC290130CA
:10036800C002031D8C294108AA004208AB004308BB
:10037800AC004408BC003C08AD004508BD003D0881
:10038800AE000A128A115F22831203132A08B600EC
:100398002B08B7002C08B80008008312031346087E
:1003A800CA004708CB004808CC0003104B0D4C0D81
:1003B800CD004D08D3005308031DEB290030C900B8
:1003C8000030C8000030C7000030C60008004608EA
:1003D800CA004708CB004808CC0017300310CC0CE3
:1003E800CB0CCA0CFF3E031DF2294A08CD004D086C
:1003F800CE00C717FF30C605FF30C7050030C80557
:100408004608CF004708D0004808D100D2018E30F6
:10041800D302D31F2D2A5308803A8F3E03181D2A72
:100428000030C9000030C8000030C7000030C600E6
:10043800080001300310D20CD10CD00CCF0CFF3EB9
:10044800031D1E2A0130CA004A08D3070319482A87
:100458001D2A18305302031C452A0030C9000030F9
:10046800C8000030C7000030C60008000130CA00CC
:100478000310CF0DD00DD10DD20DCA0B3C2A01307F
:10048800D3025308031D3A2A4E080319562ACF09E6
:10049800D009D109D209CF0A0319D00A0319D10A00
:1004A8000319D20A5208C9005108C8005008C700E9
:1004B8004F08C6000800831203132D080319692A80
:1004C8002C082B042A04031D7C2A0030AA000030C3
:1004D800AB000030AC0008000130AF002F08AD07BA
:1004E80001300310AC0CAB0CAA0CFF3E031D752A9F
:1004F800FE302C050319972A702A0130AF002F0807
:10050800AD070130AA07003003180130AB070030EF
:1005180003180130AC0701300310AC0CAB0CAA0C6B
:10052800FF3E031D902AFF302C050319A62A812AB5
:100538000130AD0201300310AA0DAB0DAC0DFF3E2A
:10054800031D9F2AAB1BAC2A02302D0203189C2ADC
:100558002D18B42AFF30AA057F30AB05FF30AC0553
:100568000310AD0C2D08AF00B001B101103003101D
:10057800AF0DB00DB10DFF3E031DBB2A2F08AA0415
:100588003008AB043108AC042E0803190800AC1776
:100598000800831203135A09F4005B09F500F40AF2
:1005A8000319F50A5F087407F00060080318600A69
:1005B8007507F1000A128A11E3230A128A117108D9
:1005C80083120313D9007008D8005B086002031D6A
:1005D800EF2A5A085F020318032B5908803AFF00D4
:1005E80088307F02031DFA2A01305802031C032BAE
:1005F80083120313D809D909D80A0319D90A83120F
:10060800031360085B02031D0B2B5F085A020318D3
:1006180008005908803AFF0088307F02031D162B16
:10062800003058020318080083120313D809D909A7
:10063800D80A0319D90A0800831203135508B3000E
:100648005408B2000A128A11AC230A128A118312C2
:1006580003133208B9003308BA003408BB0000306D
:10066800B6003430B7003E30B8000A128A1119219A
:100678000A128A11831203133608C6003708C70006
:100688003808C8000A128A11D121831203134708B7
:10069800E0004608DF000800831203135508B30082
:1006A8005408B2000A128A11AC230A128A11831262
:1006B80003133208B9003308BA003408BB0000300D
:1006C800B6003430B7003E30B8000A128A1119213A
:1006D8000A128A11831203133608C6003708C700A6
:1006E8003808C8000A128A11D12183120313470857
:1006F800DB004608DA0008000A128A11D5230A121C
:100708008A1183120313081E912B0030D400D500E0
:100718000A128A1150230A128A1183120313881E9F
:100728009E2B5A30D4000030D5000A128A1150236B
:100738000A128A1183120313081F852BB430D400C0
:100748000030D5000A128A1150230A128A11852B0B
:10075800831203133208AA003308AB00AC018E30B1
:10076800B5003508AD00AE010A128A115F22831266
:1007780003132A08B2002B08B3002C08B4000800A1
:10078800F0308316031388008B170B178C14831211
:1007980003138C107E3092003230831603139200BC
:1007A80008000A128A11C4230A128A11003083121F
:1007B8000313D400D5000A128A1120230800F11F60
:1007C80008007009F2007109F300F20A0319F30A2C
:0C07D8007208F0007308F10008000634FD
:04400E00F4EFFFFFCD
:00000001FF
