:060000000A128A11122809
:10000800FE00030EF3000408F4000A08F50083124A
:1000180003137F08F6000A128A111F280A128A1190
:10002800152883120313D901DA01DB01DC018301EE
:100038000A128A11C02A05305902031CC9285B0814
:10004800803A7F3E031C742803105A08031933288A
:100058005A08F000F1017008A00071083628013034
:10006800A0000030A1002008F0007008DA00083075
:100078005A06031947285A08F000F1010310700DB9
:10008800A200710D55285A08F00003300310F00C37
:10009800FF3E031D4A287008F100F2017108A20012
:1000A8007208A3002208F0007008DA005D08013E1B
:1000B800F000003003180130F10040307006710480
:1000C80003196E285D08013EA400003003180130B2
:1000D800A5007028A401A5012408F0007008DD001F
:1000E800DB1FC62803105A08031981285A08F00094
:1000F800F1017008A600710884280830A6000030B5
:10010800A7002608F0007008DA005A030319962899
:100118005A08F0000310700CF100F2017108A800F1
:100128007208A5285A08F000F1010310F00DF10D2E
:100138000310F00DF10D0310F00DF10D7008A8007B
:100148007108A9002808F0007008DA005D08FF3E71
:10015800F000FF3003180030F100700A0319710A2B
:100168000319BE285D08FF3EAA00FF3003180030BF
:10017800AB00C2283F30AA000030AB002A08F000CC
:100188007008DD00D9015A0888000130F0007008B5
:10019800D9078C107608FF0075088A007408840057
:1001A800730E8300FE0E7E0E0900831203133B08B4
:1001B800BE003C08BF003D08C00003103F0D400DC5
:1001C800C1004108C6004608031DF1280030B800E8
:1001D8000030B9000030BA0008003808BE003908FD
:1001E800BF003A08C00003103F0D400DC100410890
:1001F800C7004708031D07290030B8000030B900C0
:100208000030BA0008000030C3000030C4000030DD
:10021800C50089304707BE003E08C6023B08BE003D
:100228003C08BF003D08C00010300310C00CBF0CD4
:10023800BE0CFF3E031D19293E08C1004108C70036
:100248003808BE003908BF003A08C0001030031053
:10025800C00CBF0CBE0CFF3E031D2B293E08C1007D
:100268004108C7068030BE003E08C705BC17FF30EE
:10027800BB05FF30BC050030BD05B917FF30B80518
:10028800FF30B9050030BA051830BE003E08C2007C
:1002980001300310C30DC40DC50DFF3E031D4D29CC
:1002A8003A083D02031D5E2939083C02031D5E29F8
:1002B80038083B02031C6B293808BB023908031CA9
:1002C800390FBC023A08031C3A0ABD024314013034
:1002D8000310BB0DBC0DBD0DFF3E031D6C29013085
:1002E800C202031D4C294308AC004408AD00450870
:1002F800AE004608BE003E08AF004708BF003F08F2
:10030800B0000A128A111F22831203132C08B800A6
:100318002D08B9002E08BA000800831203134808F4
:10032800CC004908CD004A08CE0003104D0D4E0DF3
:10033800CF004F08D5005508031DAB290030CB006E
:100348000030CA000030C9000030C8000800480862
:10035800CC004908CD004A08CE0017300310CE0C57
:10036800CD0CCC0CFF3E031DB2294C08CF004F0822
:10037800D000C917FF30C805FF30C9050030CA05CD
:100388004808D1004908D2004A08D300D4018E3069
:10039800D502D51FED295508803A8F3E0318DD296F
:1003A8000030CB000030CA000030C9000030C8005F
:1003B800080001300310D40CD30CD20CD10CFF3E32
:1003C800031DDE290130CC004C08D5070319082A83
:1003D800DD2918305502031C052A0030CB000030F7
:1003E800CA000030C9000030C80008000130CC0045
:1003F8000310D10DD20DD30DD40DCC0BFC29013037
:10040800D5025508031DFA2950080319162AD109DF
:10041800D209D309D409D10A0319D20A0319D30A74
:100428000319D40A5408CB005308CA005208C9005B
:100438005108C8000800831203132F080319292A3A
:100448002E082D042C04031D3C2A0030AC0000307B
:10045800AD000030AE0008000130B1003108AF0730
:1004680001300310AE0CAD0CAC0CFF3E031D352A59
:10047800FE302E050319572A302A0130B100310801
:10048800AF070130AC07003003180130AD0700306A
:1004980003180130AE0701300310AE0CAD0CAC0CE4
:1004A800FF3E031D502AFF302E050319662A412AF4
:1004B8000130AF0201300310AC0DAD0DAE0DFF3EA3
:1004C800031D5F2AAD1B6C2A02302F0203185C2A19
:1004D8002F18742AFF30AC057F30AD05FF30AE050C
:1004E8000310AF0C2F08B100B201B3011030031094
:1004F800B10DB20DB30DFF3E031D7B2A3108AC04CC
:100508003208AD043308AE04300803190800AE17EA
:100518000800831203135C08B000B101B009B109E7
:10052800B00A0319B10A5D083007AC003108031896
:10053800310AAD000A128A117A230A128A1183122B
:1005480003132C08B2003208DB005C085D020318B4
:10055800B42A5B08803A5F3E031CB42ADB09DB0A35
:100568005D085C02031808005B08803A603E0318C7
:100578000800DB09DB0A08000A128A118A230A121A
:100588008A1183120313081ED12A0030D600D7001F
:100598000A128A1121230A128A1183120313881E50
:1005A800DE2A7830D6000030D7000A128A112123BB
:1005B8000A128A1183120313081FEB2AF030D6009F
:1005C8000030D7000A128A1121230A128A110A124E
:1005D8008A118D220A128A11C52A83120313570819
:1005E800B5005608B4000A128A1151230A128A115A
:1005F800831203133408BB003508BC003608BD005D
:10060800CD30B800B030B9004030BA000A128A11B3
:10061800D9200A128A11831203133808C80039082E
:10062800C9003A08CA000A128A11912183120313D9
:100638004808D8005808DD0008008312031357083B
:10064800B5005608B4000A128A1151230A128A11F9
:10065800831203133408BB003508BC003608BD00FC
:10066800CD30B800B030B9004030BA000A128A1153
:10067800D9200A128A11831203133808C8003908CE
:10068800C9003A08CA000A128A1191218312031379
:100698004808D8005808DC000800831203133408FF
:1006A800AC003508AD00AE018E30B7003708AF009A
:1006B800B0010A128A111F22831203132C08B400F6
:1006C8002D08B5002E08B6000800F0308316031375
:1006D80088008B170B178C14831203138C107E3031
:1006E8009200FF308316031392000800831203134D
:1006F800AD1F08002C09AE002D09AF00AE0A031982
:10070800AF0A2E08AC002F08AD0008000A128A11A3
:1007180069230A128A11003083120313D600D70006
:080728000A128A11F1220800F7
:04400E00F4EFFFFFCD
:00000001FF
