:060000000A128A11122809
:10000800FE00030EF9000408FA000A08FB00831238
:1000180003137F08FC000A128A115A2A0A128A114D
:100028001528831603130A128A15F3250A128A1152
:10003800AA000A128A15F4250A128A11AB00831243
:1000480003130A128A15F5250A128A11E4000A1206
:100058008A15F6250A128A11E5000A128A15F7256B
:100068000A128A11E6000A128A15F825E700831693
:100078000313A801A90183120313DA01DB01DC01D0
:10008800DD01DE01DF01E001E101E201E3018301BD
:100098000A128A114F280A128A1514260A128A117E
:1000A80083120313081E60280030D200D3000A12FE
:1000B8008A15C3260A128A1183120313881E6D2813
:1000C8005A30D2000030D3000A128A15C3260A1209
:1000D8008A1183120313081F7A28B430D200003023
:1000E800D3000A128A15C3260A128A110A128A151F
:1000F80061270A128A110A3083120313C100803063
:10010800C200C301C30AC401C40A0A128A11F02634
:100118000A128A11831203135F08B1005E08B00047
:100128000A128A153D260A128A118312031330080F
:10013800B7003108B8003208B9000030B4003430D4
:10014800B5003E30B6000A128A1135230A128A1108
:10015800831203133408C4003508C5003608C600E6
:100168000A128A1181250A128A118312031345087B
:10017800D5004408D4000A128A1108240A128A11E8
:10018800623083120313C1000030C200C301C30AE6
:10019800043083160313A600260883120313C40031
:1001A8000A128A11F0260A128A11063083120313E2
:1001B800C1008030C200C301C30A0930831603138B
:1001C800A600260883120313C4000A128A11F02617
:1001D8000A128A110A128A1593260A128A118312A0
:1001E80003135308D5005208D4000A128A110824B0
:1001F8000A128A11623083120313C1000030C20050
:10020800C301C30A0C3083160313A6002608831201
:100218000313C4000A128A11F0260A128A11013047
:1002280083120313C1008030C20002308316031307
:10023800A600260883120313C3000630831603138F
:10024800A700270883120313C4000A128A11F02694
:100258000A128A110A128A15F9250A128A118312BA
:1002680003132908D5002808D4000A128A11082483
:100278000A128A11623083120313C1000030C200CF
:10028800023083160313A600260883120313C30043
:100298000A3083160313A700270883120313C40028
:1002A8000A128A11F0260A128A115428831203139B
:1002B800B40034186F29660884008317671C8313F9
:1002C8000008A800840A0008A900FE302805AA0032
:1002D800FF3029057E29660884008317671C83136D
:1002E8000008A800840A0008A90001302804AA0010
:1002F80000302904AB002A08AC002B08AD006608C2
:1003080084008317671C83132C088000840A2D0837
:1003180080003408A80001300310A80CFF3E031D1C
:1003280090292818A729660884008317671C831357
:100338000008A800840A0008A900FD302805AA00C2
:10034800FF302905B629660884008317671C8313C4
:100358000008A800840A0008A90002302804AA009E
:1003680000302904AB002A08AE002B08AF0066084D
:1003780084008317671C83132E088000840A2F08C3
:1003880080003408A80002300310A80CFF3E031DAB
:10039800C8292818DF29660884008317671C831377
:1003A8000008A800840A0008A900FB302805AA0054
:1003B800FF302905EE29660884008317671C83131C
:1003C8000008A800840A0008A90004302804AA002C
:1003D80000302904AB002A08B0002B08B1006608D9
:1003E80084008317671C831330088000840A31084F
:1003F80080003408A80003300310A80CFF3E031D3A
:10040800002A2818172A660884008317671C831394
:100418000008A800840A0008A900F7302805AA00E7
:10042800FF302905262A660884008317671C831372
:100438000008A800840A0008A90008302804AA00B7
:1004480000302904AB002A08B2002B08B300660864
:1004580084008317671C831332088000840A3308DA
:100468008000660884008317671C8313203080048B
:10047800840A00308004023083120313A800A80BFA
:10048800432A000083120313660884008317671C3D
:100498008313DF308005840AFF3080050F30831214
:1004A8000313A800A80B562A592A08008C1C2A2BCB
:1004B8000A128A15AD270A128A11653083120313AE
:1004C80060020318752A5A085B040319752A02305A
:1004D8008316031392020130F60076088312031381
:1004E800E0075A085B04031D7E2AE001FF308316EB
:1004F8000313920083125B08803AFF0080307F026A
:10050800031D882A01305A02031CD62A83120313BA
:10051800031061080319972A6108F600F7017608A5
:10052800A00077089A2A0130A0000030A100200816
:10053800F6007608E100083061060319AB2A610865
:10054800F600F7010310760DA200770DB92A6108AD
:10055800F60003300310F60CFF3E031DAE2A7608A2
:10056800F700F8017708A2007808A3002208F6002F
:100578007608E1005C08013EF6005D080318013EBC
:10058800003EF7000830770676040319D42A5C0881
:10059800013EDC005D080318013E003EDD00D62A5E
:1005A800DC01DD0183120313DB1F272B0310610815
:1005B8000319E52A6108F600F7017608A400770810
:1005C800E82A0830A4000030A5002408F6007608C0
:1005D800E10061030319FA2A6108F6000310760C9A
:1005E800F700F8017708A6007808092B6108F600DB
:1005F800F7010310F60DF70D0310F60DF70D0310B4
:10060800F60DF70D7608A6007708A7002608F6006D
:100618007608E1005C08FF3EF6005D080318013E1D
:10062800FF3EF700760A0319770A0319232B5C08A3
:10063800FF3EDC005D080318013EFF3E262BFF301D
:10064800DC000730DD00610888008C107C08FF00A2
:100658007B088A007A088400790E8300FE0E7E0EDD
:100668000900831203133408BA003508BB003608A2
:10067800BC0003103B0D3C0DBD003D08BE003E080C
:10068800031D4D2B0030B4000030B5000030B6001B
:1006980008003708BA003808BB003908BC00031046
:1006A8003B0D3C0DBD003D08C3004308031D632BF3
:1006B8000030B4000030B5000030B6000800430830
:1006C8007B3EBA003A08BE073408BA003508BB00BA
:1006D8003608BC0010300310BC0CBB0CBA0CFF3E33
:1006E800031D6F2B3A08BD003D08C3003708BA0048
:1006F8003808BB003908BC0010300310BC0CBB0C18
:10070800BA0CFF3E031D812B3A08BD003D08C30605
:100718008030BA003A08C305B517B817FF30B705D7
:10072800FF30B8050030B9050030BF000030C00008
:100738000030C1000730BA003A08C200341CB22B9E
:100748003708BF07380803110318380A031DC00704
:10075800390803110318390A031DC10701300310B2
:10076800B60CB50CB40CFF3E031DB32B01300310BF
:10077800B70DB80DB90DFF3E031DBB2B0130C202EA
:10078800031DA22B0930BA003A08C200341CDA2B28
:100798003708BF07380803110318380A031DC007B4
:1007A800390803110318390A031DC1070130031062
:1007B800B60CB50CB40CFF3E031DDB2B0130031047
:1007C800C10CC00CBF0CFF3E031DE32B0130C2025D
:1007D800031DCA2B3F08A8004008A9004108AA0029
:1007E8003E08BA003A08AB004308BB003B08AC001F
:1007F8000A128A118226831203132808B4002908D2
:10080800B5002A08B600080083160313A001A10149
:10081800A201A301A401A501643083120313A80057
:100828000030A9005508AB005408AA000A128A151E
:1008380023270A128A118312031329088316031324
:10084800A50083120313280883160313A4002508A0
:1008580083120313B20083160313240883120313AD
:10086800B1000A30B3000030B4000A128A157026AD
:100878000A128A11831203133109D6003209D700EC
:10088800D60A0319D70A0A30A8000030A90055086B
:10089800AB005408AA000A128A1523270A128A11E3
:1008A800831203135608280783160313A200831222
:1008B800031357080318570A290783160313A300BD
:1008C800250883120313B200831603132408831226
:1008D8000313B1006430B3000030B4000A128A1563
:1008E80070260A128A11831203133108D6003208BF
:1008F800D70083160313230883120313B200831649
:100908000313220883120313B1000A30B300003026
:10091800B4000A128A1570260A128A118312031368
:1009280031085607D80032080318320A5707D90089
:10093800D809D909D80A0319D90A540858078316B7
:100948000313A0008312031355080318550A590707
:1009580083160313A1002008303E83120313D60028
:100968005608E400831603132208303E831203134B
:10097800D6005608E300831603132408303E83127A
:100988000313D6005608E200080083120313370841
:10099800BA003808BB003908BC0003103B0D3C0DF9
:1009A800BD003D08C2004208031DE12C0030B40020
:1009B8000030B5000030B60008003408BA00350829
:1009C800BB003608BC0003103B0D3C0DBD003D08C4
:1009D800C3004308031DF72C0030B4000030B500F5
:1009E8000030B60008000030BF000030C000003002
:1009F800C10089304307BA003A08C2023708BA0072
:100A08003808BB003908BC0010300310BC0CBB0C04
:100A1800BA0CFF3E031D092D3A08BD003D08C3006E
:100A28003408BA003508BB003608BC001030031083
:100A3800BC0CBB0CBA0CFF3E031D1B2D3A08BD00B5
:100A48003D08C3068030BA003A08C305B817FF301E
:100A5800B705FF30B8050030B905B517FF30B40544
:100A6800FF30B5050030B6051830BA003A08BE00A8
:100A780001300310BF0DC00DC10DFF3E031D3D2DFC
:100A880036083902031D4E2D35083802031D4E2D38
:100A980034083702031C5B2D3408B7023508031CE1
:100AA800350FB8023608031C360AB9023F14013064
:100AB8000310B70DB80DB90DFF3E031D5C2D0130B5
:100AC800BE02031D3C2D3F08A8004008A9004108AC
:100AD800AA004208BA003A08AB004308BB003B082A
:100AE800AC000A128A118226831203132808B40064
:100AF8002908B5002A08B600080083120313440821
:100B0800C8004508C9004608CA000310490D4A0D27
:100B1800CB004B08D1005108031D9B2D0030C700A6
:100B28000030C6000030C5000030C400080044088A
:100B3800C8004508C9004608CA0017300310CA0C87
:100B4800C90CC80CFF3E031DA22D4808CB004B085A
:100B5800CC00C517FF30C405FF30C5050030C605F9
:100B68004408CD004508CE004608CF00D0018E309D
:100B7800D102D11FDD2D5108803A8F3E0318CD2DAB
:100B88000030C7000030C6000030C5000030C40087
:100B9800080001300310D00CCF0CCE0CCD0CFF3E5A
:100BA800031DCE2D0130C8004808D1070319F82DC0
:100BB800CD2D18305102031CF52D0030C700003030
:100BC800C6000030C5000030C40008000130C8006D
:100BD8000310CD0DCE0DCF0DD00DC80BEC2D01306F
:100BE800D1025108031DEA2D4C080319062ECD0920
:100BF800CE09CF09D009CD0A0319CE0A0319CF0AA5
:100C08000319D00A5008C7004F08C6004E08C5008F
:100C18004D08C400080083120313860183160313CA
:100C28008601831603178901831603132A08840093
:100C380083172B1C83138001840A800183120313FA
:100C4800660884008317671C83138001840A800167
:100C5800413083120313BE00ED30BD00BD0B322EB0
:100C6800BE0B322E372E8312031365080A128A111F
:100C78005A210A128A118312031365080A128A116B
:100C88005A210A128A118312031365080A128A115B
:100C98005A210A128A1102300A128A115A210A129A
:100CA8008A11383083120313BD003D08B5000030A7
:100CB8000A128A11B5270A128A11831203136408CB
:100CC800BD003D08B50000300A128A11B5270A1286
:100CD8008A1183120313B501B50A00300A128A116A
:100CE800B5270A128A11831203136508BD003D084F
:100CF800B50000300A128A11B527080083120313C1
:100D08002B0803198C2E2A0829042804031D9F2E5A
:100D18000030A8000030A9000030AA000800013007
:100D2800AD002D08AB0701300310AA0CA90CA80CC4
:100D3800FF3E031D982EFE302A050319BA2E932E66
:100D48000130AD002D08AB070130A80700300318AB
:100D58000130A907003003180130AA070130031039
:100D6800AA0CA90CA80CFF3E031DB32EFF302A05C0
:100D78000319C92EA42E0130AB0201300310A80DAF
:100D8800A90DAA0DFF3E031DC22EA91BCF2E0230AE
:100D98002B020318BF2E2B18D72EFF30A8057F3043
:100DA800A905FF30AA050310AB0C2B08AD00AE0156
:100DB800AF0110300310AD0DAE0DAF0DFF3E031D9A
:100DC800DE2E2D08A8042E08A9042F08AA042C0832
:100DD80003190800AA170800831203134408031D07
:100DE8001C2FC701113047020318152F4708410768
:100DF800840042080318420AFF000A128A150020DC
:100E08000A128A11003A0319152F0130C500450846
:100E1800C7070130C5004508C40711304702031C45
:100E2800FA2E4403FF3A123EC5004508C6001E2F9D
:100E3800831203134408C5004508BD0043080A127D
:100E48008A1555260A128A1183120313C801113014
:100E5800480203180800480841078400420803189C
:100E6800420AFF000A128A1500200A128A11003A63
:100E78000319080048084107840042080318420A79
:100E8800FF000A128A1500200A128A11C5004508B7
:100E9800B50001300A128A11B5270A128A110130E9
:100EA80083120313C5004508C8072B2F83120313A9
:100EB800AE01A91F662FA809A909A80A0319A90A3A
:100EC800AE01AE0AAB1F712FAA09AB09AA0A031912
:100ED800AB0A0130AC002C08AE06AF01B0012808FF
:100EE80029040319A82FAD01AD0AA91B872F0130CA
:100EF8000310A80DA90DFF3E031D7C2F0130AC0087
:100F08002C08AD07792F01300310AF0DB00DFF3E4F
:100F1800031D882F29082B02031D942F28082A0255
:100F2800031C9D2F2808AA022908031CAB03AB0247
:100F38002F1401300310A90CA80CFF3E031D9E2F8F
:100F48000130AD02031D872F2E080319B02FAF09FA
:100F5800B009AF0A0319B00A3008A9002F08A80081
:100F6800080083120313BA003A08031DCB2F660842
:100F780084008317671C83130008B600840A0008DE
:100F8800B700EF303605B800FF303705DA2F6608AE
:100F980084008317671C83130008B600840A0008BE
:100FA800B70010303604B80000303704B9003808EC
:100FB800BB003908BC00660884008317671C8313CC
:100FC8003B088000840A3C0880003508B6000430DD
:100FD8000310B60CFF3E031DEC2F36080A128A11C7
:100FE8005A210A128A118312031335080F390A127B
:060FF8008A115A210800D5
:10100000FF1B0A2883137F1883170008840A03191B
:10101000FF0A080008308A000408840A82070034A6
:10102000563465346C343A340034503441343A34F4
:0A1030000034503446343A340034E2
:101BE600863400340C34033406340034831603136D
:101BF600290883120313A9008316031328088312E6
:101C06000313A8000800F11F08007009F20071090B
:101C1600F300F20A0319F30A7208F0007308F100E0
:101C260008000A128A110F260A128A150A128A1544
:101C360027260A128A15003083120313D200D30016
:101C46000A128A15F3260800F0308316031388005B
:101C56008312031388018B170B17831603138C1437
:101C6600831203138C107E309200FF308316031309
:101C760092000800831203133008A8003108A90057
:101C8600AA018E30B3003308AB00AC010A128A11E8
:101C96008226831203132808B0002908B1002A08F7
:101CA600B200080083120313BF0002303F06031D73
:101CB6005E2EC0305F2E8030BE003E08C0003D085C
:101CC600FF3EBE003E08C0074008BE003E08B50005
:101CD60000300A128A11B527080083120313B501D2
:101CE600B601311C7C2E3308B5070318B60A340832
:101CF600B60701300310B30DB40DFF3E031D7D2E54
:101D060001300310B20CB10CFF3E031D842E3108C6
:101D16003204031D742E3608B2003508B1000800DF
:101D2600831203135D08B1005C08B0000A128A151D
:101D36003D260A128A15831203133008B7003108AC
:101D4600B8003208B9000030B4003430B5003E3077
:101D5600B6000A128A1135230A128A158312031352
:101D66003408C4003508C5003608C6000A128A11B0
:101D76008125831203134508D3004408D2000800C6
:101D8600831203135308B1005208B0000A128A15D1
:101D96003D260A128A15831203133008B70031084C
:101DA600B8003208B9000030B4003430B5003E3017
:101DB600B6000A128A11C9240A128A15831203135D
:101DC6003408C4003508C5003608C6000A128A1150
:101DD6008125831203134508DF004408DE0008004E
:101DE600831203135308B1005208B0000A128A1571
:101DF6003D260A128A15831203133008B7003108EC
:101E0600B8003208B9000030B4003430B5003E30B6
:101E1600B6000A128A11C9240A128A1583120313FC
:101E26003408C4003508C5003608C6000A128A11EF
:101E36008125831203134508DD004408DC000800F1
:101E460083120313AE01AF012808290403195C2F7E
:101E5600AD01AD0AA91B3B2F01300310A80DA90D3A
:101E6600FF3E031D302F0130AC002C08AD072D2F8F
:101E760001300310AE0DAF0DFF3E031D3C2F2908A8
:101E86002B02031D482F28082A02031C512F28085D
:101E9600AA022908031CAB03AB022E14013003105F
:101EA600A90CA80CFF3E031D522F0130AD02031DE5
:101EB6003B2F2F08A9002E08A80008008312031341
:101EC6005A085B040319A82F8316031312088312FA
:101ED6000313B700B8013708A8003808A900DA309C
:101EE600AA001030AB000A128A115A270A128A1564
:101EF600831203132908B2002808B1006430B30026
:101F06000030B4000A128A1570260A128A15831246
:101F160003133208BA003108B9005130A800003066
:101F2600A9003A08AB003908AA000A128A115A27F2
:101F360083120313290883160313A90083120313BC
:101F4600280883160313A800080083160313A801A4
:101F5600A9010800831203135E09F4005F09F50066
:101F6600F40A0319F50A5C087407F0005D08031803
:101F76005D0A7507F1000A128A1506260A128A15E5
:101F8600710883120313DB007008DA005F085D0234
:101F9600031DCF2F5E085C020318E32F5B08803A0F
:101FA600FF0088307F02031DDA2F01305A02031C1E
:101FB600E32F83120313DA09DB09DA0A0319DB0AB2
:101FC600831203135D085F02031DEB2F5C085E029C
:101FD600031808005B08803AFF0088307F02031D63
:101FE600F62F00305A020318080083120313DA0989
:0A1FF600DB09DA0A0319DB0A080010
:04400E00F4EFFFFFCD
:00000001FF
