:060000000A128A11122809
:10000800FE00030EF3000408F4000A08F50083124A
:1000180003137F08F6000A128A1126280A128A1189
:1000280015280A128A1121210A128A11B2000A120D
:100038008A112221B300AF01B001B10183010A1274
:100048008A11BA280A302F02031CA8283308803ADC
:100058007F3E031C68280830320603193B28320803
:10006800F000F1010310700DA000710D492832084D
:10007800F00003300310F00CFF3E031D3E2870080B
:10008800F100F2017108A0007208A1002008F00038
:100098007008B2003008013EF0000030031801304B
:1000A800F100403070067104031962283008013EDF
:1000B800A200003003180130A3006428A201A301A4
:1000C8002208F0007008B000B31FA72832030319F4
:1000D80077283208F0000310700CF100F201710863
:1000E800A400720886283208F000F1010310F00D10
:1000F800F10D0310F00DF10D0310F00DF10D700866
:10010800A4007108A5002408F0007008B2003008A7
:10011800FF3EF000FF3003180030F100700A0319A9
:10012800710A03199F283008FF3EA600FF30031804
:100138000030A700A3283F30A6000030A7002608FB
:10014800F0007008B000AF01320888000130F000FC
:100158007008AF078C107608FF0075088A007408CD
:100168008400730E8300FE0E7E0E09000A128A11A7
:1001780000210A128A1183120313081AB101881E7A
:10018800C9281430AC002C08B100081FCF2828302B
:10019800AC002C08B1003108AC00AD01AC09AD09C8
:1001A800AC0A0319AD0A30082C07A8002D0803185B
:1001B8002D0AA9000A128A1111210A128A11831222
:1001C80003132808AE002E08B300310830020318C4
:1001D800F4283308803A5F3E031CF428B309B30AB5
:1001E800300831020318BF283308803A603E0318EC
:1001F800BF28B309B30ABF28F03083160313880059
:100208008B170B178C14831203138C107E309200FB
:10021800FF30831603139200080083120313A91FEB
:1002280008002809AA002909AB00AA0A0319AB0A81
:0E0238002A08A8002B08A90008000134013490
:04400E00F4EFFFFFCD
:00000001FF
