:1000000000000A128A111228FE00030E8312031345
:10001000C3000408C4000A08C5007F08C6000A120D
:100020008A11202D0A128A11E02F83160313AD01C5
:10003000AE01291C21282B08AD070318AE0A2C0895
:10004000AE0701300310AB0DAC0DFF3E031D22289F
:1000500001300310AA0CA90CFF3E031D2928290812
:100060002A04031D19282E08AA002D08A90008003B
:10007000831603133C08C0003D08C1003E08C200BF
:100080000310410D420DC3004308C9004908031D78
:1000900052280030BF000030BE000030BD000030EC
:1000A000BC0008003C08C0003D08C1003E08C2007A
:1000B00017300310C20CC10CC00CFF3E031D5928A1
:1000C0004008C3004308C400BD17FF30BC05FF3023
:1000D000BD050030BE053C08C5003D08C6003E0811
:1000E000C700C8018E30C902C91F94284908803A48
:1000F0008F3E031884280030BF000030BE0000305F
:10010000BD000030BC00080001300310C80CC70C53
:10011000C60CC50CFF3E031D85280130C0004008F9
:10012000C9070319AF28842818304902031CAC28DA
:100130000030BF000030BE000030BD000030BC0009
:1001400008000130C0000310C50DC60DC70DC80D55
:10015000C00BA3280130C9024908031DA128440887
:100160000319BD28C509C609C709C809C50A031965
:10017000C60A0319C70A0319C80A4808BF00470876
:10018000BE004608BD004508BC00080083160313E6
:10019000D201D301D401D501D601D7016430A0002A
:1001A0000030A1004D08A3004C08A2000A128A15D5
:1001B000A3230A128A11831603132108D7002008EB
:1001C000D6005708AA005608A9000A30AB00003034
:1001D000AC000A128A1115200A128A118316031321
:1001E0002909CE002A09CF00CE0A0319CF0A0A3006
:1001F000A0000030A1004D08A3004C08A2000A1284
:100200008A15A3230A128A11831603134E082007A6
:10021000D4004F0803184F0A2107D5005708AA0039
:100220005608A9006430AB000030AC000A128A11F5
:1002300015200A128A11831603132908CE002A08F2
:10024000CF005508AA005408A9000A30AB000030BE
:10025000AC000A128A1115208316031329084E07D1
:10026000D0002A0803182A0A4F07D100D009D10963
:10027000D00A0319D10A4C085007D2004D080318C0
:100280004D0A5107D300E6015208303ECE004E0819
:10029000E5005408303ECE004E08E4005608303EDB
:1002A000CE004E08E300080083160313AA01A31F23
:1002B0006629A009A109A209A309A00A0319A10A94
:1002C0000319A20A0319A30AAA01AA0AA71F7729D8
:1002D000A409A509A609A709A40A0319A50A0319CF
:1002E000A60A0319A70A0130A8002808AA060030A8
:1002F000AE000030AD000030AC000030AB00230891
:100300002204210420040319CC29A901A90AA31B52
:1003100097290130A8000310A00DA10DA20DA30D77
:10032000A80B8B290130A8002808A90787290130CC
:10033000A8000310AB0DAC0DAD0DAE0DA80B9929A7
:1003400023082702031DAE2922082602031DAE2919
:1003500021082502031DAE2920082402031CBF2901
:100360002008A4022108031C210FA5022208031C57
:10037000220FA6022308031C230FA7022B1401300F
:100380000310A30CA20CA10CA00CFF3E031DC0295E
:100390000130A902031D97292A080319DA29AB099C
:1003A000AC09AD09AE09AB0A0319AC0A0319AD0AD1
:1003B0000319AE0A2E08A3002D08A2002C08A100E4
:1003C0002B08A0000800831203132308A6002408AA
:1003D000A7002508A8000310270D280DA90029084B
:1003E000AE002E08031DFB290030A0000030A10044
:1003F0000030A20008002008A6002108A70022085B
:10040000A8000310270D280DA9002908AF002F0808
:10041000031D112A0030A0000030A1000030A2000E
:1004200008000030AB000030AC000030AD00893077
:100430002F07A6002608AE022308A6002408A7005E
:100440002508A80010300310A80CA70CA60CFF3E2E
:10045000031D232A2608A9002908AF002008A600AA
:100460002108A7002208A80010300310A80CA70C30
:10047000A60CFF3E031D352A2608A9002908AF0651
:100480008030A6002608AF05A417FF30A305FF3073
:10049000A4050030A505A117FF30A005FF30A10578
:1004A0000030A2051830A6002608AA00013003106B
:1004B000AB0DAC0DAD0DFF3E031D572A22082502E2
:1004C000031D682A21082402031D682A200823022C
:1004D000031C752A2008A3022108031C210FA40273
:1004E0002208031C220AA5022B1401300310A30DBD
:1004F000A40DA50DFF3E031D762A0130AA02031D9F
:10050000562A2B08F1002C08F2002D08F3002E08C3
:10051000A6002608F4002F08A7002708F5000A12F5
:100520008A151F26710883120313A0007208A10008
:100530007308A2000800831603132F08B2003008C6
:10054000B3003108B4000310330D340DB500350885
:10055000BA003A08031DB32A0030AC000030AD00E9
:100560000030AE0008002C08B2002D08B3002E08A1
:10057000B4000310330D340DB5003508BB003B0843
:10058000031DC92A0030AC000030AD000030AE00C1
:1005900008000030B7000030B8000030B9008930E2
:1005A0003B07B2003208BA022F08B2003008B3008D
:1005B0003108B40010300310B40CB30CB20CFF3E81
:1005C000031DDB2A3208B5003508BB002C08B20039
:1005D0002D08B3002E08B40010300310B40CB30C77
:1005E000B20CFF3E031DED2A3208B5003508BB06EC
:1005F0008030B2003208BB05B017FF30AF05FF30C6
:10060000B0050030B105AD17FF30AC05FF30AD05CA
:100610000030AE051830B2003208B60001300310C9
:10062000B70DB80DB90DFF3E031D0F2B2E0831027B
:10063000031D202B2D083002031D202B2C082F0218
:10064000031C2D2B2C08AF022D08031C2D0FB0020C
:100650002E08031C2E0AB102371401300310AF0D0F
:10066000B00DB10DFF3E031D2E2B0130B602031D50
:100670000E2B3708A0003808A1003908A2003A085C
:10068000B2003208A3003B08B3003308A4000A12EA
:100690008A158B26831603132008AC002108AD00B1
:1006A0002208AE000800831603132C08B2002D08A0
:1006B000B3002E08B4000310330D340DB500350817
:1006C000B6003608031D6B2B0030AC000030AD00C7
:1006D0000030AE0008002F08B2003008B300310827
:1006E000B4000310330D340DB5003508BB003B08D2
:1006F000031D812B0030AC000030AD000030AE0097
:1007000008003B087B3EB2003208B6072C08B20056
:100710002D08B3002E08B40010300310B40CB30C35
:10072000B20CFF3E031D8D2B3208B5003508BB000F
:100730002F08B2003008B3003108B40010300310A5
:10074000B40CB30CB20CFF3E031D9F2B3208B50056
:100750003508BB068030B2003208BB05AD17B017B4
:10076000FF30AF05FF30B0050030B1050030B700F5
:100770000030B8000030B9000730B2003208BA00CB
:100780002C1CD02B2F08B707300803110318300A90
:10079000031DB807310803110318310A031DB907F7
:1007A00001300310AE0CAD0CAC0CFF3E031DD12B81
:1007B00001300310AF0DB00DB10DFF3E031DD92B5D
:1007C0000130BA02031DC02B0930B2003208BA0052
:1007D0002C1CF82B2F08B707300803110318300A18
:1007E000031DB807310803110318310A031DB907A7
:1007F00001300310AE0CAD0CAC0CFF3E031DF92B09
:1008000001300310B90CB80CB70CFF3E031D012CCE
:100810000130BA02031DE82B3708A0003808A100F8
:100820003908A2003608B2003208A3003B08B30022
:100830003308A4000A128A158B2683160313200896
:10084000AC002108AD002208AE0008008316031397
:10085000AC002C183B2C6D08840083176E1C83138E
:100860000008A000840A0008A100FE302005A200B4
:10087000FF3021054A2C6D08840083176E1C8313FA
:100880000008A000840A0008A10001302004A20092
:1008900000302104A3002208A4002308A5006D084D
:1008A000840083176E1C831324088000840A2508A3
:1008B00080002C08A00001300310A00CFF3E031D97
:1008C0005C2C2018732C6D08840083176E1C831316
:1008D0000008A000840A0008A100FD302005A20045
:1008E000FF302105822C6D08840083176E1C831352
:1008F0000008A000840A0008A10002302004A20021
:1009000000302104A3002208A6002308A7006D08D8
:10091000840083176E1C831326088000840A27082E
:1009200080002C08A00002300310A00CFF3E031D25
:10093000942C2018AB2C6D08840083176E1C831335
:100940000008A000840A0008A100FB302005A200D6
:10095000FF302105BA2C6D08840083176E1C8313A9
:100960000008A000840A0008A10004302004A200AE
:1009700000302104A3002208A8002308A9006D0864
:10098000840083176E1C831328088000840A2908BA
:1009900080002C08A00003300310A00CFF3E031DB4
:1009A000CC2C2018E32C6D08840083176E1C831355
:1009B0000008A000840A0008A100F7302005A2006A
:1009C000FF302105F22C6D08840083176E1C831301
:1009D0000008A000840A0008A10008302004A2003A
:1009E00000302104A3002208AA002308AB006D08F0
:1009F000840083176E1C83132A088000840A2B0846
:100A000080006D08840083176E1C831320308004DF
:100A1000840A003080040000831603136D088400EC
:100A200083176E1C8313DF308005840AFF30800536
:100A30000F3083160313A000A00B1C2D1F2D0800E0
:100A40008C1C102E0A128A15B9240A128A116530DC
:100A5000831203135D0203183B2D831603135D08F5
:100A60005E0403193B2D02309202013083120313FE
:100A7000C0004008DD07831603135D085E04031DF4
:100A8000482D83120313DD01FF30831603139200F8
:100A90005E08803AFF0080307F02031D512D013037
:100AA0005D02031CAB2D8312031303105E080319B0
:100AB000602D5E08C000C1014008C7004108632DD9
:100AC0000130C7000030C8004708C0004008DE0001
:100AD00008305E060319742D5E08C000C1010310C2
:100AE000400DC900410D822D5E08C0000330031087
:100AF000C00CFF3E031D772D4008C100C201410814
:100B0000C9004208CA004908C0004008DE00831638
:100B100003135F08013E83120313C00083160313FF
:100B200060080318013E003E83120313C100083021
:100B3000410640040319A72D831603135F08013EE5
:100B4000DF0060080318013E003EE000AB2D831675
:100B50000313DF01E00183160313DE1F0B2E831244
:100B6000031303105E080319BC2D5E08C000C10109
:100B70004008CB004108BF2D0830CB000030CC002E
:100B80004B08C0004008DE005E030319D12D5E084B
:100B9000C0000310400CC100C2014108CD00420852
:100BA000E02D5E08C000C1010310C00DC10D03108F
:100BB000C00DC10D0310C00DC10D4008CD0041088E
:100BC000CE004D08C0004008DE00831603135F0806
:100BD000FF3E83120313C00083160313600803183B
:100BE000013EFF3E83120313C100400A0319410A6C
:100BF0000319052E831603135F08FF3EDF0060080C
:100C00000318013EFF3EE0000B2EFF308316031356
:100C1000DF000730E000831203135E0888008C10A9
:100C20008C1E472E0A128A15BC210A128A118312C1
:100C30000313C0004008CF004F08C0005C08503EBE
:100C400084004008831380000130C0004008DC07A6
:100C50000D304F06031D462E5C08503E8400800177
:100C60000A128A150C250A128A11831203135B08D3
:100C7000BF005A08BE000A128A1534230A128A11CC
:100C800083120313DC01D001D101D2018C1246087A
:100C9000FF0045088A0044088400430E8300FE0ECE
:100CA0007E0E09000A128A157D220A128A11831209
:100CB0000313081E652E003083160313CA00CB00F1
:100CC0000A128A15D4220A128A1183120313881E6B
:100CD000742E5A3083160313CA000030CB000A1258
:100CE0008A15D4220A128A1183120313081F832E35
:100CF000B43083160313CA000030CB000A128A15E1
:100D0000D4220A128A110A128A15E1230A128A11C0
:100D10002D3083160313B9008030BA00BB01BB0A23
:100D2000BC01BC0A0A128A15F9260A128A11831616
:100D300003136208A9006108A8000A128A15282274
:100D40000A128A11831603132808AF002908B0007D
:100D50002A08B1000030AC003430AD003E30AE00A7
:100D60000A128A1153230A128A11831603132C08BC
:100D7000BC002D08BD002E08BE000A128A113820C2
:100D80000A128A11831603133D08CD003C08CC00DB
:100D90000A128A11C6200A128A11E330831603133D
:100DA000B9000030BA00BB01BB0A0430D8005808B3
:100DB000BC000A128A15F9260A128A1129308316F4
:100DC0000313B9008030BA00BB01BB0A0930D80058
:100DD0005808BC000A128A15F9260A128A110A124A
:100DE0008A15A4220A128A11831603134B08CD0018
:100DF0004A08CC000A128A11C6200A128A11E3306E
:100E000083160313B9000030BA00BB01BB0A0C30D3
:100E1000D8005808BC000A128A15F9260A128A114D
:100E2000243083160313B9008030BA000230D80092
:100E30005808BB000630D9005908BC000A128A15B0
:100E4000F9260A128A110A128A15C0210A128A1179
:100E5000831603132108CD002008CC000A128A1142
:100E6000C6200A128A11E33083160313B90000303A
:100E7000BA000230D8005808BB000A30D90059081F
:100E8000BC000A128A15F9260A128A11023083164A
:100E90000313DA000430D900B930D800D80B4E2F34
:100EA000D90B4E2FDA0B4E2F552F0A128A15A4227A
:100EB0000A128A11831603134B08CD004A08CC008E
:100EC0000A128A11C6200A128A11143083160313DB
:100ED000A0008030A1000A128A156A230A128A1122
:100EE000E33083160313A0000030A1000A128A1514
:100EF0006A230A128A110D300A128A15D6210A12A3
:100F00008A110A300A128A15D6210A128A1183160A
:100F100003136208A9006108A8000A128A15282292
:100F20000A128A11831603132808AF002908B0009B
:100F30002A08B1000030AC003430AD003E30AE00C5
:100F40000A128A1153230A128A11831603132C08DA
:100F5000BC002D08BD002E08BE000A128A113820E0
:100F60000A128A11831603133D08CD003C08CC00F9
:100F70000A128A11C6200A128A110130831603133D
:100F8000A0008030A1000A128A156A230A128A1171
:100F9000E33083160313A0000030A1000A128A1563
:100FA0006A230A128A110D300A128A15D6210A12F2
:100FB0008A110A300A128A15D6210A128A11572E6E
:100FC0008313EF30FD000930FE00C730FF00E8302A
:100FD00084000A128A15F1210A128A11DB3084007A
:100FE000E8300A128A15CE210A128A115030840084
:100FF0005F300A128A15CE2183010A128A11522EFD
:10100000FF1B0A2883137F1883170008840A03191B
:10101000FF0A080008308A000408840A82070034A6
:1010200050346F3473346934633461346F34203432
:1010300064346534733465346A34613464346134DF
:101040003A342034003450346F34733469346334A8
:1010500061346F34203461347434753461346C34E9
:101060003A3420340034563465346C343A34003425
:10107000503441343A340034503446343A34003435
:10137800831203131A080800831603135C08A100DC
:101388005B08A00008008634003410340C340334A1
:101398000634003464008001840A0406031900340A
:1013A8000406CF2983160313A00020088312031311
:1013B80099000C120800F21F08007109F300720965
:1013C800F400F30A0319F40A7308F1007408F20030
:1013D80008007E088A007F088200ED210A128A151B
:1013E8008000840A04087D0603190034FF0A0319E3
:1013F800FE0AF1297908F1007A08F200F3018E302B
:10140800FC007C08F400F5010A128A151F267108F1
:10141800F9007208FA007308FB000800F030831620
:10142800031388008312031388018B170B17831685
:1014380003138C14831203138C107E309200FF3038
:101448008316031392000800831603132808A000CC
:101458002908A100A2018E30AB002B08A300A4012B
:101468000A128A158B26831603132008A800210860
:10147800A9002208AA00080083160313B700023047
:101488003706031D4C2A4030B6003608B8004D2AEE
:10149800B8013508FF3EB6003608B8073808803866
:1014A800B6003608AD0000300A128A15212408005B
:1014B800F501F601711C662A7308F5070318F60A88
:1014C8007408F60701300310F30DF40DFF3E031DF9
:1014D800672A01300310F20CF10CFF3E031D6E2A3F
:1014E80071087204031D5E2A7608F2007508F1007F
:1014F80008008312031386018316031386018316DB
:10150800031789010A128A15BD250A128A15B130F6
:1015180083160313AF002830B0000A128A156B2413
:101528000A128A150A128A1512220A128A1500301E
:1015380083160313CA00CB000A128A150423080075
:10154800831603136008A9005F08A8000A128A1509
:1015580028220A128A15831603132808AF002908BF
:10156800B0002A08B1000030AC003430AD003E3085
:10157800AE000A128A1153230A128A15831603131E
:101588002C08BC002D08BD002E08BE000A128A11C6
:101598003820831603133D08CB003C08CA00080016
:1015A800831603134B08A9004A08A8000A128A15D3
:1015B80028220A128A15831603132808AF0029085F
:1015C800B0002A08B1000030AC003430AD003E3025
:1015D800AE000A128A119B220A128A158316031377
:1015E8002C08BC002D08BD002E08BE000A128A1166
:1015F8003820831603133D08E2003C08E100080088
:10160800831603134B08A9004A08A8000A128A1572
:1016180028220A128A15831603132808AF002908FE
:10162800B0002A08B1000030AC003430AD003E30C4
:10163800AE000A128A119B220A128A158316031316
:101648002C08BC002D08BD002E08BE000A128A1105
:101658003820831603133D08E0003C08DF0008002B
:10166800831203133F08FA003E08F9000A128A158C
:10167800FE210A128A15790883120313A3007A0837
:10168800A4007B08A5000030A0003430A1003E3043
:10169800A2000A128A11E3210A128A15831203137F
:1016A8002008B0002108B1002208B2000A128A15E9
:1016B800722783120313310883160313E20083127F
:1016C8000313300883160313E1000800831603137D
:1016D800A301831603132308200784002108031895
:1016E800210A83120313FF000A128A1500200A1226
:1016F8008A15003A031908008316031323082007E4
:10170800840021080318210A83120313FF000A1218
:101718008A1500200A128A159900C7308316031308
:10172800A200962BA20B952B992B0130831603133D
:10173800A2002208A307831203130C126D2B831631
:101748000313A501A601200821040319DC2BA70116
:10175800A70AA11BBB2B01300310A00DA10DFF3E52
:10176800031DB02B0130A4002408A707AD2B0130BE
:101778000310A50DA60DFF3E031DBC2B2108230257
:10178800031DC82B20082202031CD12B2008A2020B
:101798002108031CA303A302251401300310A10C84
:1017A800A00CFF3E031DD22B0130A702031DBB2B4B
:1017B8002608A1002508A0000800831603135D0869
:1017C8005E0403191E2C1208AF00B0012F08A000F8
:1017D8003008A100DA30A2001030A3000A128A15DE
:1017E80062250A128A15831603132108AA00200805
:1017F800A9006430AB000030AC000A128A11152031
:101808000A128A15831603132A08B2002908B100A0
:101818005130A0000030A1003208A3003108A20016
:101828000A128A156225831603132108DC00200892
:10183800DB000800DB01DC01080083160313B2009B
:101848003208031D372C6D08840083176E1C831320
:101858000008AE00840A0008AF00EF302E05B00083
:10186800FF302F05462C6D08840083176E1C8313E8
:101878000008AE00840A0008AF0010302E04B00043
:1018880000302F04B1003008B3003108B4006D08EF
:10189800840083176E1C831333088000840A34087D
:1018A80080002D08AE0004300310AE0CFF3E031D6F
:1018B800582C2E080A128A1126240A128A15831611
:1018C80003132D080F390A128A11262408008316DB
:1018D80003130713871722309800903083120313DD
:1018E8009800831603132F08A0003008A100A20156
:1018F800A3010030A7003D30A6000930A500003044
:10190800A4000A128A1154210A128A158316031395
:101918002308B4002208B3002108B2002008B1004F
:101928000030A3000030A2000030A1004030A00029
:101938003408A7003308A6003208A5003108A4001F
:101948000A128A115421831603132008990083165A
:101958000317871183120313981718168C1283160E
:1019680003138C160B178B170800831603136109D2
:10197800F5006209F600F50A0319F60A5F0875070B
:10198800F10060080318600A7607F2000A128A1547
:10199800DF210A128A15720883160313DE00710804
:1019A800DD0062086002031DDB2C61085F0203187A
:1019B800EF2C5E08803AFF0088307F02031DE62C7A
:1019C80001305D02031CEF2C83160313DD09DE09C9
:1019D800DD0A0319DE0A8316031360086202031D79
:1019E800F72C5F086102031808005E08803AFF00C0
:1019F80088307F02031D022D00305D0203180800A5
:101A080083160313DD09DE09DD0A0319DE0A08005F
:101A180083120313A001A101A201A301A401A5013E
:101A28005208D03EA000FF3003180030A100510832
:101A3800D03EA200FF3003180030A3005008D03E6B
:101A4800A400FF3003180030A5002308F200220884
:101A5800F1000A30F3000030F4000A128A155C2203
:101A68000A128A157108F7007208F8008312031326
:101A78002508F2002408F1006430F3000030F40077
:101A88000A128A155C2271087707F9007208031890
:101A9800720A7807FA008312031320087907FB00FB
:101AA80021080318210A7A07FC007B08013EDA00A6
:101AB8007C080318013E003EDB0008008316031370
:101AC800A601A11F6E2DA009A109A00A0319A10A48
:101AD800A601A60AA31F792DA209A309A20A031920
:101AE800A30A0130A4002408A606A701A80120081B
:101AF80021040319B02DA501A50AA11B8F2D0130C2
:101B08000310A00DA10DFF3E031D842D0130A4007C
:101B18002408A507812D01300310A70DA80DFF3E4D
:101B2800031D902D21082302031D9C2D200822024D
:101B3800031CA52D2008A2022108031CA303A3024D
:101B4800271401300310A10CA00CFF3E031DA62D85
:101B58000130A502031D8F2D26080319B82DA709EA
:101B6800A809A70A0319A80A2808A1002708A0009D
:101B7800080083160313680884008317691C8313FD
:101B88008001840A80016D08840083176E1C83130A
:101B98008001840A8001413083160313B600ED30BA
:101BA800B500B50BD52DB60BD52DDA2D03300A129D
:101BB8008A1126240A128A1503300A128A11262449
:101BC8000A128A1503300A128A1126240A128A1563
:101BD80002300A128A1126240A128A15283083161E
:101BE8000313B5003508AD0000300A128A15212408
:101BF8000A128A15831603136B08B5003508AD0061
:101C080000300A128A1521240A128A158316031332
:101C1800AD01AD0A00300A128A1521240A128A156C
:101C2800831603136C08B5003508AD0000300A129E
:101C38008A152124080074080319272E73087204D2
:101C48007104031D3A2E0030F1000030F20000301C
:101C5800F30008000130F6007608F407013003109D
:101C6800F30CF20CF10CFF3E031D332EFE3073050E
:101C78000319552E2E2E0130F6007608F407013090
:101C8800F107003003180130F20700300318013063
:101C9800F30701300310F30CF20CF10CFF3E031DA7
:101CA8004E2EFF3073050319642E3F2E0130F402C7
:101CB80001300310F10DF20DF30DFF3E031D5D2EF3
:101CC800F21B6A2E0230740203185A2E7418722EF0
:101CD800FF30F1057F30F205FF30F3050310F40CF7
:101CE8007408F600F701F80110300310F60DF70D2F
:101CF800F80DFF3E031D792E7608F1047708F204EB
:101D08007808F304750803190800F3170800831608
:101D1800031323080319952E220821042004031D08
:101D2800A82E0030A0000030A1000030A20008005A
:101D38000130A5002508A30701300310A20CA10C4F
:101D4800A00CFF3E031DA12EFE3022050319C32E51
:101D58009C2E0130A5002508A3070130A0070030FC
:101D680003180130A107003003180130A207013021
:101D78000310A20CA10CA00CFF3E031DBC2EFF30CB
:101D880022050319D22EAD2E0130A3020130031013
:101D9800A00DA10DA20DFF3E031DCB2EA11BD82E19
:101DA800023023020318C82E2318E02EFF30A005A6
:101DB8007F30A105FF30A2050310A30C2308A5005E
:101DC800A601A70110300310A50DA60DA70DFF3E13
:101DD800031DE72E2508A0042608A1042708A2044D
:101DE800240803190800A2170800831603133C08E7
:101DF800031D2C2FBF0111303F020318222F3F086B
:101E0800390784003A0803183A0A83120313FF00BB
:101E18000A128A1500200A128A15003A0319222F7D
:101E2800013083160313BD003D08BF070130BD0014
:101E38003D08BC0711303F02031C032F8316031310
:101E48003C03FF3A123EBD003D08BE003E082F2F5E
:101E5800831603133C08BD003D08B5003B080A1271
:101E68008A1540220A128A1583160313C0011130FD
:101E78004002031808004008390784003A0803188C
:101E88003A0A83120313FF000A128A1500200A1265
:101E98008A15003A03190800831603134008390706
:101EA80084003A0803183A0A83120313FF000A123F
:101EB8008A1500200A128A1583160313BD003D08EF
:101EC800AD0001300A128A1521240A128A15013040
:101ED80083160313BD003D08C0073B2F831203136D
:101EE8003008B4003108B5003208B6000310350DCB
:101EF800360DB7003708BD003D08031D8C2F003094
:101F0800B3000030B2000030B1000030B00008006B
:101F18003008B4003108B5003208B6001730031095
:101F2800B60CB50CB40CFF3E031D932F3408B70054
:101F38003708B800B117FF30B005FF30B1050030E1
:101F4800B2053008B9003108BA003208BB00BC013C
:101F58008E30BD02BD1FCE2F3D08803A8F3E03183C
:101F6800BE2F0030B3000030B2000030B1000030A6
:101F7800B000080001300310BC0CBB0CBA0CB90C43
:101F8800FF3E031DBF2F0130B4003408BD070319FD
:101F9800E92FBE2F18303D02031CE62F0030B30096
:101FA8000030B2000030B1000030B000080001304D
:101FB800B4000310B90DBA0DBB0DBC0DB40BDD2F69
:101FC8000130BD023D08031DDB2F38080319F72F28
:101FD800B909BA09BB09BC09B90A0319BA0A03192C
:101FE800BB0A0319BC0A3C08B3003B08B2003A0814
:081FF800B1003908B000080037
:04400E00F4EFFFFFCD
:00000001FF
