:1000000000000A128A111228FE00030EFA000408EA
:10001000FB000A08FC00831203137F08FD000A128C
:0A0020008A11E22C0A128A11C02F87
:10002E0086340034831203135A085B0403196028C4
:10003E0083160313120883120313B700B80137088F
:10004E00A8003808A900DA30AA001030AB000A1256
:10005E008A1165200A128A11831203132908B2002D
:10006E002808B1006430B3000030B4000A128A15BB
:10007E0072260A128A11831203133208BA0031084B
:10008E00B9005130A8000030A9003A08AB00390879
:10009E00AA000A128A1165208312031329088316F7
:1000AE000313A90083120313280883160313A80051
:1000BE00080083160313A801A90108008312031375
:1000CE00AE01A91F7128A809A909A80A0319A90A2E
:1000DE00AE01AE0AAB1F7C28AA09AB09AA0A031906
:1000EE00AB0A0130AC002C08AE06AF01B0012808F7
:1000FE0029040319B328AD01AD0AA91B92280130BA
:10010E000310A80DA90DFF3E031D87280130AC007A
:10011E002C08AD07842801300310AF0DB00DFF3E43
:10012E00031D932829082B02031D9F2828082A0245
:10013E00031CA8282808AA022908031CAB03AB023B
:10014E002F1401300310A90CA80CFF3E031DA92883
:10015E000130AD02031D92282E080319BB28AF09EA
:10016E00B009AF0A0319B00A3008A9002F08A80079
:10017E000800831203134408031DED28C701113034
:10018E0047020318E5284708410784004208031870
:10019E00420AFF000A128A1500200A128A11003A3A
:1001AE000319E5280130C5004508C7070130C50011
:1001BE004508C40711304702031CCA284403FF3AFE
:1001CE00123EC5004508C6004608F02883120313E8
:1001DE004408C5004508BD0043080A128A15562674
:1001EE000A128A1183120313C80111304802031830
:1001FE00080048084107840042080318420AFF001D
:10020E000A128A1500200A128A11003A03190800F0
:10021E0048084107840042080318420AFF000A12E8
:10022E008A1500200A128A11C5004508B500013052
:10023E000A128A1563270A128A11013083120313D8
:10024E00C5004508C807FC288312031386018316D0
:10025E0003138601831603178901831603132C08D3
:10026E00840083172D1C83138001840A800183125E
:10027E000313650884008317661C83138001840AA8
:10028E008001413083120313BE00ED30BD00BD0B63
:10029E004E29BE0B4E29532903300A128A11BB2553
:1002AE000A128A1103300A128A11BB250A128A1108
:1002BE0003300A128A11BB250A128A1102300A1261
:1002CE008A11BB250A128A11283083120313BD002E
:1002DE003D08B50000300A128A1563270A128A11EA
:1002EE00831203136308BD003D08B50000300A12E7
:1002FE008A1563270A128A1183120313B501B50AF0
:10030E0000300A128A1563270A128A118312031308
:10031E006408BD003D08B50000300A128A15632737
:10032E000800831203132B080319A2292A08290493
:10033E002804031DB5290030A8000030A9000030A4
:10034E00AA0008000130AD002D08AB0701300310E4
:10035E00AA0CA90CA80CFF3E031DAE29FE302A05DF
:10036E000319D029A9290130AD002D08AB070130A2
:10037E00A807003003180130A90700300318013018
:10038E00AA0701300310AA0CA90CA80CFF3E031DEE
:10039E00C929FF302A050319DF29BA290130AB021A
:1003AE0001300310A80DA90DAA0DFF3E031DD8297B
:1003BE00A91BE52902302B020318D5292B18ED298C
:1003CE00FF30A8057F30A905FF30AA050310AB0C3E
:1003DE002B08AD00AE01AF0110300310AD0DAE0D08
:1003EE00AF0DFF3E031DF4292D08A8042E08A90405
:1003FE002F08AA042C0803190800AA170800831254
:10040E0003134408C8004508C9004608CA00031073
:10041E00490D4A0DCB004B08D1005108031D202A6F
:10042E000030C7000030C6000030C5000030C400E8
:10043E0008004408C8004508C9004608CA0017301D
:10044E000310CA0CC90CC80CFF3E031D272A48080E
:10045E00CB004B08CC00C517FF30C405FF30C505D7
:10046E000030C6054408CD004508CE004608CF0032
:10047E00D0018E30D102D11F622A5108803A8F3EB0
:10048E000318522A0030C7000030C6000030C500E5
:10049E000030C400080001300310D00CCF0CCE0C7D
:1004AE00CD0CFF3E031D532A0130C8004808D1076A
:1004BE0003197D2A522A18305102031C7A2A003061
:1004CE00C7000030C6000030C5000030C400080070
:1004DE000130C8000310CD0DCE0DCF0DD00DC80BC1
:1004EE00712A0130D1025108031D6F2A4C080319DD
:1004FE008B2ACD09CE09CF09D009CD0A0319CE0A10
:10050E000319CF0A0319D00A5008C7004F08C600B6
:10051E004E08C5004D08C4000800831203133708A7
:10052E00BA003808BB003908BC0003103B0D3C0D67
:10053E00BD003D08C2004208031DAC2A0030B400C5
:10054E000030B5000030B60008003408BA00350897
:10055E00BB003608BC0003103B0D3C0DBD003D0832
:10056E00C3004308031DC22A0030B4000030B5009A
:10057E000030B60008000030BF000030C000003070
:10058E00C10089304307BA003A08C2023708BA00E0
:10059E003808BB003908BC0010300310BC0CBB0C73
:1005AE00BA0CFF3E031DD42A3A08BD003D08C30015
:1005BE003408BA003508BB003608BC0010300310F2
:1005CE00BC0CBB0CBA0CFF3E031DE62A3A08BD005C
:1005DE003D08C3068030BA003A08C305B817FF308D
:1005EE00B705FF30B8050030B905B517FF30B405B3
:1005FE00FF30B5050030B6051830BA003A08BE0017
:10060E0001300310BF0DC00DC10DFF3E031D082BA1
:10061E0036083902031D192B35083802031D192B14
:10062E0034083702031C262B3408B7023508031C86
:10063E00350FB8023608031C360AB9023F140130D2
:10064E000310B70DB80DB90DFF3E031D272B01305A
:10065E00BE02031D072B3F08A8004008A900410851
:10066E00AA004208BA003A08AB004308BB003B0898
:10067E00AC000A128A119821831203132808B400C1
:10068E002908B5002A08B600080083160313A00136
:10069E00A101A201A301A401A501643083120313D9
:1006AE00A8000030A9005508AB005408AA000A1291
:1006BE008A1525270A128A11831203132908831615
:1006CE000313A50083120313280883160313A40033
:1006DE00250883120313B200831603132408831212
:1006EE000313B1000A30B3000030B4000A128A15A9
:1006FE0072260A128A11831203133109D6003209A7
:10070E00D700D60A0319D70A0A30A8000030A9006C
:10071E005508AB005408AA000A128A1525270A129A
:10072E008A11831203135608280783160313A20097
:10073E008312031357080318570A29078316031346
:10074E00A300250883120313B20083160313240893
:10075E0083120313B1006430B3000030B4000A12E8
:10076E008A1572260A128A11831203133108D600D3
:10077E003208D70083160313230883120313B20023
:10078E0083160313220883120313B1000A30B30039
:10079E000030B4000A128A1572260A128A118312C8
:1007AE00031331085607D80032080318320A5707C8
:1007BE00D900D809D909D80A0319D90A54085807F3
:1007CE0083160313A0008312031355080318550A4A
:1007DE00590783160313A1002008303E831203131A
:1007EE00D600560883160313AC002208303E83123F
:1007FE000313D600560883160313AB002408303EAD
:10080E0083120313D600560883160313AA0008009A
:10081E00831203133408BA003508BB003608BC0037
:10082E0003103B0D3C0DBD003D08BE003E08031DF0
:10083E00272C0030B4000030B5000030B6000800A0
:10084E003708BA003808BB003908BC0003103B0D4E
:10085E003C0DBD003D08C3004308031D3D2C003078
:10086E00B4000030B5000030B600080043087B3EEF
:10087E00BA003A08BE073408BA003508BB0036087D
:10088E00BC0010300310BC0CBB0CBA0CFF3E031D99
:10089E00492C3A08BD003D08C3003708BA00380895
:1008AE00BB003908BC0010300310BC0CBB0CBA0CDA
:1008BE00FF3E031D5B2C3A08BD003D08C306803089
:1008CE00BA003A08C305B517B817FF30B705FF30A1
:1008DE00B8050030B9050030BF000030C000003050
:1008EE00C1000730BA003A08C200341C8C2C3708FD
:1008FE00BF07380803110318380A031DC00739084B
:10090E0003110318390A031DC10701300310B60C79
:10091E00B50CB40CFF3E031D8D2C01300310B70D2A
:10092E00B80DB90DFF3E031D952C0130C202031DFB
:10093E007C2C0930BA003A08C200341CB42C37089B
:10094E00BF07380803110318380A031DC0073908FA
:10095E0003110318390A031DC10701300310B60C29
:10096E00B50CB40CFF3E031DB52C01300310C10CA9
:10097E00C00CBF0CFF3E031DBD2C0130C202031D77
:10098E00A42C3F08A8004008A9004108AA003E0870
:10099E00BA003A08AB004308BB003B08AC000A1291
:1009AE008A119821831203132808B4002908B50070
:1009BE002A08B60008000A128A15AD270A128A11F3
:1009CE0065308312031360020318FB2C5A085B0474
:1009DE000319FB2C02308316031392020130F70029
:1009EE00770883120313E0075A085B04031D042DD6
:1009FE00E001FF3083160313920083125B08803AE6
:100A0E00FF0080307F02031D0E2D01305A02031CA1
:100A1E005C2D831203130310610803191D2D610849
:100A2E00F700F8017708A0007808202D0130A0000B
:100A3E000030A1002008F7007708E10008306106B9
:100A4E000319312D6108F700F8010310770DA2008C
:100A5E00780D3F2D6108F70003300310F70CFF3EB1
:100A6E00031D342D7708F800F9017808A2007908E3
:100A7E00A3002208F7007708E1005C08013EF700AA
:100A8E005D080318013E003EF80008307806770432
:100A9E0003195A2D5C08013EDC005D080318013E67
:100AAE00003EDD005C2DDC01DD0183120313DB1F34
:100ABE00AD2D0310610803196B2D6108F700F801C5
:100ACE007708A40078086E2D0830A4000030A50029
:100ADE002408F7007708E10061030319802D6108EF
:100AEE00F7000310770CF800F9017808A6007908D2
:100AFE008F2D6108F700F8010310F70DF80D0310A4
:100B0E00F70DF80D0310F70DF80D7708A60078080D
:100B1E00A7002608F7007708E1005C08FF3EF70003
:100B2E005D080318013EFF3EF800770A0319780AA4
:100B3E000319A92D5C08FF3EDC005D080318013E79
:100B4E00FF3EAC2DFF30DC000730DD006108880071
:100B5E008C107D08FF007C088A007B0884007A0ECA
:100B6E008300FE0E7E0E090083120313B4003418A8
:100B7E00D02D650884008317661C83130008A80017
:100B8E00840A0008A900FE302805AA00FF302905B6
:100B9E00DF2D650884008317661C83130008A800E8
:100BAE00840A0008A90001302804AA000030290494
:100BBE00AB002A08AC002B08AD0065088400831733
:100BCE00661C83132C088000840A2D0880003408CC
:100BDE00A80001300310A80CFF3E031DF12D2818AC
:100BEE00082E650884008317661C83130008A8006E
:100BFE00840A0008A900FD302805AA00FF30290547
:100C0E00172E650884008317661C83130008A8003E
:100C1E00840A0008A90002302804AA000030290422
:100C2E00AB002A08AE002B08AF00650884008317BE
:100C3E00661C83132E088000840A2F088000340857
:100C4E00A80002300310A80CFF3E031D292E281801
:100C5E00402E650884008317661C83130008A800C5
:100C6E00840A0008A900FB302805AA00FF302905D8
:100C7E004F2E650884008317661C83130008A80096
:100C8E00840A0008A90004302804AA0000302904B0
:100C9E00AB002A08B0002B08B1006508840083174A
:100CAE00661C831330088000840A310880003408E3
:100CBE00A80003300310A80CFF3E031D612E281858
:100CCE00782E650884008317661C83130008A8001D
:100CDE00840A0008A900F7302805AA00FF3029056C
:100CEE00872E650884008317661C83130008A800EE
:100CFE00840A0008A90008302804AA00003029043C
:100D0E00AB002A08B2002B08B300650884008317D5
:100D1E00661C831332088000840A3308800065083D
:100D2E0084008317661C831320308004840A0030ED
:100D3E008004000083120313650884008317661C69
:100D4E008313DF308005840AFF3080050F30831255
:100D5E000313A800A80BB12EB42E08000A128A1590
:100D6E0015260A128A1183120313081EC62E00308E
:100D7E00D200D3000A128A15C5260A128A118312CE
:100D8E000313881ED32E5A30D2000030D3000A121D
:100D9E008A15C5260A128A1183120313081FE02E24
:100DAE00B430D2000030D3000A128A15C5260A12BA
:100DBE008A110A128A1119200A128A110A30831214
:100DCE000313C1008030C200C301C30AC401C40AA8
:100DDE000A128A11C0200A128A11831203135F08A5
:100DEE00B1005E08B0000A128A153E260A128A1158
:100DFE00831203133008B7003108B8003208B90067
:100E0E000030B4003430B5003E30B6000A128A11FC
:100E1E000F240A128A11831203133408C4003508F2
:100E2E00C5003608C6000A128A1106220A128A1155
:100E3E00831203134508D5004408D4000A128A1100
:100E4E004C230A128A11AA3083120313C1000030F8
:100E5E00C200C301C30A043083160313A60026087A
:100E6E0083120313C4000A128A11C0200A128A11B7
:100E7E00063083120313C1008030C200C301C30ABF
:100E8E00093083160313A600260883120313C40029
:100E9E000A128A11C0200A128A110A128A15952680
:100EAE000A128A11831203135308D5005208D40074
:100EBE000A128A114C230A128A11AA3083120313C2
:100ECE00C1000030C200C301C30A0C3083160313E5
:100EDE00A600260883120313C4000A128A11C0202A
:100EEE000A128A11013083120313C1008030C2002E
:100EFE00023083160313A600260883120313C300C1
:100F0E00063083160313A700270883120313C400A9
:100F1E000A128A11C0200A128A110A128A15FA259B
:100F2E000A128A11831203132908D5002808D40047
:100F3E000A128A114C230A128A11AA308312031341
:100F4E00C1000030C200023083160313A60026082B
:100F5E0083120313C3000A3083160313A700270856
:100F6E0083120313C4000A128A11C0200A128A11B6
:100F7E00BA2E831603130A128A1117200A128A1127
:100F8E00AC000A128A1118200A128A11AD008312BF
:100F9E0003130A128A15F5250A128A11E2000A12A3
:100FAE008A15F6250A128A11E3000A128A15F72508
:100FBE000A128A11E4000A128A15F8250A128A11F9
:100FCE00E5000A128A15F925E60083160313A80117
:100FDE00A901AA01AB0183120313DA01DB01DC01C3
:100FEE00DD01DE01DF01E001E10183010A128A1158
:100FFE00B52EFF1B0A2883137F1883170008840A57
:10100E000319FF0A080008308A000408840A8207C0
:10101E000034563465346C343A3400345034413430
:0C102E003A340034503446343A34003474
:101BEA0010340C34033406340034831603132908E2
:101BFA0083120313A90083160313280883120313FD
:101C0A00A8000800F21F08007109F3007209F40025
:101C1A00F30A0319F40A7308F1007408F2000800C1
:101C2A000A128A112B210A128A150A128A152826E3
:101C3A000A128A15003083120313D200D3000A1243
:101C4A008A15F5260800F0308316031388008312DC
:101C5A00031388018B170B17831603138C14831233
:101C6A0003138C107E309200FF3083160313920008
:101C7A000800831203133008A8003108A900AA013A
:101C8A008E30B3003308AB00AC010A128A119821D6
:101C9A00831203132808B0002908B1002A08B200E9
:101CAA00080083120313BF0002303F06031D622E91
:101CBA004030BE003E08C000632EC0013D08FF3E12
:101CCA00BE003E08C00740088038BE003E08B50086
:101CDA0000300A128A156327080083120313B5011C
:101CEA00B601311C7E2E3308B5070318B60A34082C
:101CFA00B60701300310B30DB40DFF3E031D7F2E4E
:101D0A0001300310B20CB10CFF3E031D862E3108C0
:101D1A003204031D762E3608B2003508B1000800D9
:101D2A00831203135D08B1005C08B0000A128A1519
:101D3A003E260A128A15831203133008B7003108A7
:101D4A00B8003208B9000030B4003430B5003E3073
:101D5A00B6000A128A110F240A128A158312031373
:101D6A003408C4003508C5003608C6000A128A11AC
:101D7A000622831203134508D3004408D200080040
:101D8A00831203135308B1005208B0000A128A15CD
:101D9A003E260A128A15831203133008B700310847
:101DAA00B8003208B9000030B4003430B5003E3013
:101DBA00B6000A128A1194220A128A158312031390
:101DCA003408C4003508C5003608C6000A128A114C
:101DDA000622831203134508DF004408DE000800C8
:101DEA00831203135308B1005208B0000A128A156D
:101DFA003E260A128A15831203133008B7003108E7
:101E0A00B8003208B9000030B4003430B5003E30B2
:101E1A00B6000A128A1194220A128A15831203132F
:101E2A003408C4003508C5003608C6000A128A11EB
:101E3A000622831203134508DD004408DC0008006B
:101E4A0083120313AE01AF012808290403195E2F78
:101E5A00AD01AD0AA91B3D2F01300310A80DA90D34
:101E6A00FF3E031D322F0130AC002C08AD072F2F87
:101E7A0001300310AE0DAF0DFF3E031D3E2F2908A2
:101E8A002B02031D4A2F28082A02031C532F280855
:101E9A00AA022908031CAB03AB022E14013003105B
:101EAA00A90CA80CFF3E031D542F0130AD02031DDF
:101EBA003D2F2F08A9002E08A8000800831203133B
:101ECA00BA003A08031D792F650884008317661C37
:101EDA0083130008B600840A0008B700EF303605FD
:101EEA00B800FF303705882F650884008317661C01
:101EFA0083130008B600840A0008B70010303604BD
:101F0A00B80000303704B9003808BB003908BC00F3
:101F1A00650884008317661C83133B088000840AC3
:101F2A003C0880003508B60004300310B60CFF3EAA
:101F3A00031D9A2F36080A128A11BB250A128A151E
:101F4A008312031335080F390A128A11BB250800B8
:101F5A00831203135E09F5005F09F600F50A0319F7
:101F6A00F60A5C087507F1005D0803185D0A760732
:101F7A00F2000A128A1507260A128A1572088312B3
:101F8A000313DB007108DA005F085D02031DCF2F1F
:101F9A005E085C020318E32F5B08803AFF00883072
:101FAA007F02031DDA2F01305A02031CE32F83122A
:101FBA000313DA09DB09DA0A0319DB0A83120313AA
:101FCA005D085F02031DEB2F5C085E020318080020
:101FDA005B08803AFF0088307F02031DF62F00302D
:101FEA005A020318080083120313DA09DB09DA0A12
:061FFA000319DB0A0800D8
:04400E00F4EFFFFFCD
:00000001FF
