:1000000000000A128A111228FE00030EFA000408EA
:10001000FB000A08FC00831203137F08FD000A128C
:0A0020008A11382F0A128A11F52FF9
:1008C000F21F08007109F3007209F400F30A03191A
:1008D000F40A7308F1007408F20008000A128A1181
:1008E0007C240A128A11003083120313D200D30031
:1008F0000A128A1101250800F030831603138800BC
:100900008B170B178C14831203138C107E309200FC
:100910003230831603139200080083120313300849
:10092000A8003108A900AA018E30B3003308AB003B
:10093000AC010A128A118425831203132808B0001F
:100940002908B1002A08B20008000A128A116E2490
:100950000A128A1183120313081EB62C0030D2002B
:10096000D3000A128A11D1240A128A1183120313A6
:10097000881EC32C5A30D2000030D3000A128A11CC
:10098000D1240A128A1183120313081FAA2CB4302F
:10099000D2000030D3000A128A11D1240A128A111F
:1009A000AA2C831203135308B1005208B0000A1294
:1009B0008A118D240A128A11831203133008B7009A
:1009C0003108B8003208B9000030B4003430B50046
:1009D0003E30B6000A128A1180260A128A1183124A
:1009E00003133408C4003508C5003608C6000A12CF
:1009F0008A11F225831203134508D7004408D60054
:100A00000800831203135308B1005208B0000A1201
:100A10008A118D240A128A11831203133008B70039
:100A20003108B8003208B9000030B4003430B500E5
:100A30003E30B6000A128A1180260A128A118312E9
:100A400003133408C4003508C5003608C6000A126E
:100A50008A11F225831203134508DA004408D900ED
:100A60000800831203135609F5005709F600F50A2A
:100A70000319F60A59087507F1005A0803185A0AAB
:100A80007607F2000A128A1160240A128A1172088B
:100A900083120313D5007108D40057085A02031DAE
:100AA000532D560859020318672D5508803AFF0048
:100AB00088307F02031D5E2D01305402031C672D18
:100AC00083120313D409D509D40A0319D50A831252
:100AD00003135A085702031D6F2D590856020318B5
:100AE00008005508803AFF0088307F02031D7A2DE8
:100AF000003054020318080083120313D409D509E7
:100B0000D40A0319D50A0800831203132B0803190A
:100B10008E2D2A0829042804031DA12D0030A800C9
:100B20000030A9000030AA0008000130AD002D08F7
:100B3000AB0701300310AA0CA90CA80CFF3E031D43
:100B40009A2DFE302A050319BC2D952D0130AD00DC
:100B50002D08AB070130A807003003180130A907A2
:100B6000003003180130AA0701300310AA0CA90CA9
:100B7000A80CFF3E031DB52DFF302A050319CB2D10
:100B8000A62D0130AB0201300310A80DA90DAA0D4E
:100B9000FF3E031DC42DA91BD12D02302B020318CB
:100BA000C12D2B18D92DFF30A8057F30A905FF30A6
:100BB000AA050310AB0C2B08AD00AE01AF0110303D
:100BC0000310AD0DAE0DAF0DFF3E031DE02D2D0842
:100BD000A8042E08A9042F08AA042C080319080049
:100BE000AA170800831203134408C8004508C90067
:100BF0004608CA000310490D4A0DCB004B08D1002E
:100C00005108031D0C2E0030C7000030C600003014
:100C1000C5000030C40008004408C8004508C900E9
:100C20004608CA0017300310CA0CC90CC80CFF3E96
:100C3000031D132E4808CB004B08CC00C517FF300E
:100C4000C405FF30C5050030C6054408CD00450881
:100C5000CE004608CF00D0018E30D102D11F4E2EDB
:100C60005108803A8F3E03183E2E0030C7000030F6
:100C7000C6000030C5000030C40008000130031079
:100C8000D00CCF0CCE0CCD0CFF3E031D3F2E0130FF
:100C9000C8004808D1070319692E3E2E18305102AA
:100CA000031C662E0030C7000030C6000030C500AF
:100CB0000030C40008000130C8000310CD0DCE0D77
:100CC000CF0DD00DC80B5D2E0130D1025108031D90
:100CD0005B2E4C080319772ECD09CE09CF09D00918
:100CE000CD0A0319CE0A0319CF0A0319D00A5008F6
:100CF000C7004F08C6004E08C5004D08C4000800D4
:100D0000831203133708BA003808BB003908BC0047
:100D100003103B0D3C0DBD003D08C2004208031D01
:100D2000982E0030B4000030B5000030B600080046
:100D30003408BA003508BB003608BC0003103B0D70
:100D40003C0DBD003D08C3004308031DAE2E00301E
:100D5000B4000030B5000030B60008000030BF001D
:100D60000030C0000030C10089304307BA003A08A3
:100D7000C2023708BA003808BB003908BC0010307E
:100D80000310BC0CBB0CBA0CFF3E031DC02E3A086E
:100D9000BD003D08C3003408BA003508BB00360862
:100DA000BC0010300310BC0CBB0CBA0CFF3E031D82
:100DB000D22E3A08BD003D08C3068030BA003A087A
:100DC000C305B817FF30B705FF30B8050030B905C7
:100DD000B517FF30B405FF30B5050030B605183043
:100DE000BA003A08BE0001300310BF0DC00DC10D9E
:100DF000FF3E031DF42E36083902031D052F35086A
:100E00003802031D052F34083702031C122F340843
:100E1000B7023508031C350FB8023608031C360A22
:100E2000B9023F1401300310B70DB80DB90DFF3EE4
:100E3000031D132F0130BE02031DF32E3F08A8002F
:100E40004008A9004108AA004208BA003A08AB00CD
:100E50004308BB003B08AC000A128A1184258312A8
:100E600003132808B4002908B5002A08B6000800B2
:100E70000A128A1131250A128A11831203135508A6
:100E8000803AFF0080307F02031D482F013054025A
:100E9000031C962F83120313031058080319572FAE
:100EA0005808F700F8017708A00078085A2F013099
:100EB000A0000030A1002008F7007708D800083013
:100EC000580603196B2F5808F700F8010310770D27
:100ED000A200780D792F5808F70003300310F70CA3
:100EE000FF3E031D6E2F7708F800F9017808A20075
:100EF0007908A3002208F7007708D8005908013EB6
:100F0000F7005A080318013E003EF8000830780642
:100F100077040319942F5908013ED9005A08031881
:100F2000013E003EDA00962FD901DA018312031345
:100F3000D51FE72F031058080319A52F5808F700ED
:100F4000F8017708A4007808A82F0830A400003022
:100F5000A5002408F7007708D80058030319BA2F12
:100F60005808F7000310770CF800F9017808A6007C
:100F70007908C92F5808F700F8010310F70DF80D8C
:100F80000310F70DF80D0310F70DF80D7708A60004
:100F90007808A7002608F7007708D8005908FF3E10
:100FA000F7005A080318013EFF3EF800770A0319BC
:100FB000780A0319E32F5908FF3ED9005A0803188D
:100FC000013EFF3EE62FFF30D9000730DA00580817
:100FD00088008C107D08FF007C088A007B08840054
:100FE0007A0E8300FE0E7E0E090083120313D401D5
:100FF000D501D601D701D80183010A128A11A52C87
:04400E00F4EFFFFFCD
:00000001FF
